{
	"data": {
		"bytecode": {
			"linkReferences": {},
			"object": "608060405234801561000f575f80fd5b50610d8b8061001d5f395ff3fe608060405234801561000f575f80fd5b5060043610610060575f3560e01c80631d65e77e1461006457806367238562146100965780638d977672146100b2578063b6cb58a5146100e4578063c308411714610102578063e1e295581461011e575b5f80fd5b61007e60048036038101906100799190610674565b61013a565b60405161008d93929190610752565b60405180910390f35b6100b060048036038101906100ab91906108ba565b61027b565b005b6100cc60048036038101906100c79190610674565b610341565b6040516100db93929190610752565b60405180910390f35b6100ec6103f8565b6040516100f99190610901565b60405180910390f35b61011c60048036038101906101179190610674565b6103fe565b005b61013860048036038101906101339190610674565b6104c3565b005b5f60605f808411801561014f57506001548411155b61018e576040517f08c379a000000000000000000000000000000000000000000000000000000000815260040161018590610964565b60405180910390fd5b5f805f8681526020019081526020015f206040518060600160405290815f82015481526020016001820180546101c3906109af565b80601f01602080910402602001604051908101604052809291908181526020018280546101ef906109af565b801561023a5780601f106102115761010080835404028352916020019161023a565b820191905f5260205f20905b81548152906001019060200180831161021d57829003601f168201915b50505050508152602001600282015f9054906101000a900460ff1615151515815250509050805f015181602001518260400151935093509350509193909250565b60015f81548092919061028d90610a0c565b9190505550604051806060016040528060015481526020018281526020015f15158152505f8060015481526020019081526020015f205f820151815f015560208201518160010190816102e09190610bf0565b506040820151816002015f6101000a81548160ff0219169083151502179055509050507fa5ed9e6226c584326505694539c95cb0e3238ae09bcda5a65c00bbfdab1c666260015482604051610336929190610cbf565b60405180910390a150565b5f602052805f5260405f205f91509050805f015490806001018054610365906109af565b80601f0160208091040260200160405190810160405280929190818152602001828054610391906109af565b80156103dc5780601f106103b3576101008083540402835291602001916103dc565b820191905f5260205f20905b8154815290600101906020018083116103bf57829003601f168201915b505050505090806002015f9054906101000a900460ff16905083565b60015481565b5f8111801561040f57506001548111155b61044e576040517f08c379a000000000000000000000000000000000000000000000000000000000815260040161044590610964565b60405180910390fd5b5f808281526020019081526020015f205f8082015f9055600182015f61047491906105d8565b600282015f6101000a81549060ff021916905550507f36a2f40cfe61ace5baf26a6e4f86ffa75c62392fde263d354d42e0e718fa4bd1816040516104b89190610901565b60405180910390a150565b5f811180156104d457506001548111155b610513576040517f08c379a000000000000000000000000000000000000000000000000000000000815260040161050a90610964565b60405180910390fd5b5f808281526020019081526020015f206002015f9054906101000a900460ff1615610573576040517f08c379a000000000000000000000000000000000000000000000000000000000815260040161056a90610d37565b60405180910390fd5b60015f808381526020019081526020015f206002015f6101000a81548160ff0219169083151502179055507fc1fa7142cfb933d0855114a3bffde296944c30b727f297c14d0db4d553d3a5c7816040516105cd9190610901565b60405180910390a150565b5080546105e4906109af565b5f825580601f106105f55750610612565b601f0160209004905f5260205f20908101906106119190610615565b5b50565b5b8082111561062c575f815f905550600101610616565b5090565b5f604051905090565b5f80fd5b5f80fd5b5f819050919050565b61065381610641565b811461065d575f80fd5b50565b5f8135905061066e8161064a565b92915050565b5f6020828403121561068957610688610639565b5b5f61069684828501610660565b91505092915050565b6106a881610641565b82525050565b5f81519050919050565b5f82825260208201905092915050565b5f5b838110156106e55780820151818401526020810190506106ca565b5f8484015250505050565b5f601f19601f8301169050919050565b5f61070a826106ae565b61071481856106b8565b93506107248185602086016106c8565b61072d816106f0565b840191505092915050565b5f8115159050919050565b61074c81610738565b82525050565b5f6060820190506107655f83018661069f565b81810360208301526107778185610700565b90506107866040830184610743565b949350505050565b5f80fd5b5f80fd5b7f4e487b71000000000000000000000000000000000000000000000000000000005f52604160045260245ffd5b6107cc826106f0565b810181811067ffffffffffffffff821117156107eb576107ea610796565b5b80604052505050565b5f6107fd610630565b905061080982826107c3565b919050565b5f67ffffffffffffffff82111561082857610827610796565b5b610831826106f0565b9050602081019050919050565b828183375f83830152505050565b5f61085e6108598461080e565b6107f4565b90508281526020810184848401111561087a57610879610792565b5b61088584828561083e565b509392505050565b5f82601f8301126108a1576108a061078e565b5b81356108b184826020860161084c565b91505092915050565b5f602082840312156108cf576108ce610639565b5b5f82013567ffffffffffffffff8111156108ec576108eb61063d565b5b6108f88482850161088d565b91505092915050565b5f6020820190506109145f83018461069f565b92915050565b7f496e76616c6964207461736b20494400000000000000000000000000000000005f82015250565b5f61094e600f836106b8565b91506109598261091a565b602082019050919050565b5f6020820190508181035f83015261097b81610942565b9050919050565b7f4e487b71000000000000000000000000000000000000000000000000000000005f52602260045260245ffd5b5f60028204905060018216806109c657607f821691505b6020821081036109d9576109d8610982565b5b50919050565b7f4e487b71000000000000000000000000000000000000000000000000000000005f52601160045260245ffd5b5f610a1682610641565b91507fffffffffffffffffffffffffffffffffffffffffffffffffffffffffffffffff8203610a4857610a476109df565b5b600182019050919050565b5f819050815f5260205f209050919050565b5f6020601f8301049050919050565b5f82821b905092915050565b5f60088302610aaf7fffffffffffffffffffffffffffffffffffffffffffffffffffffffffffffffff82610a74565b610ab98683610a74565b95508019841693508086168417925050509392505050565b5f819050919050565b5f610af4610aef610aea84610641565b610ad1565b610641565b9050919050565b5f819050919050565b610b0d83610ada565b610b21610b1982610afb565b848454610a80565b825550505050565b5f90565b610b35610b29565b610b40818484610b04565b505050565b5b81811015610b6357610b585f82610b2d565b600181019050610b46565b5050565b601f821115610ba857610b7981610a53565b610b8284610a65565b81016020851015610b91578190505b610ba5610b9d85610a65565b830182610b45565b50505b505050565b5f82821c905092915050565b5f610bc85f1984600802610bad565b1980831691505092915050565b5f610be08383610bb9565b9150826002028217905092915050565b610bf9826106ae565b67ffffffffffffffff811115610c1257610c11610796565b5b610c1c82546109af565b610c27828285610b67565b5f60209050601f831160018114610c58575f8415610c46578287015190505b610c508582610bd5565b865550610cb7565b601f198416610c6686610a53565b5f5b82811015610c8d57848901518255600182019150602085019450602081019050610c68565b86831015610caa5784890151610ca6601f891682610bb9565b8355505b6001600288020188555050505b505050505050565b5f604082019050610cd25f83018561069f565b8181036020830152610ce48184610700565b90509392505050565b7f5461736b20436f6d706c657465642057656c646f6e65000000000000000000005f82015250565b5f610d216016836106b8565b9150610d2c82610ced565b602082019050919050565b5f6020820190508181035f830152610d4e81610d15565b905091905056fea26469706673582212209abb5f57c4a5bea34e31cd3522f9bc02e18720675a362a4d024c1e289480d05464736f6c63430008160033",
			"opcodes": "PUSH1 0x80 PUSH1 0x40 MSTORE CALLVALUE DUP1 ISZERO PUSH2 0xF JUMPI PUSH0 DUP1 REVERT JUMPDEST POP PUSH2 0xD8B DUP1 PUSH2 0x1D PUSH0 CODECOPY PUSH0 RETURN INVALID PUSH1 0x80 PUSH1 0x40 MSTORE CALLVALUE DUP1 ISZERO PUSH2 0xF JUMPI PUSH0 DUP1 REVERT JUMPDEST POP PUSH1 0x4 CALLDATASIZE LT PUSH2 0x60 JUMPI PUSH0 CALLDATALOAD PUSH1 0xE0 SHR DUP1 PUSH4 0x1D65E77E EQ PUSH2 0x64 JUMPI DUP1 PUSH4 0x67238562 EQ PUSH2 0x96 JUMPI DUP1 PUSH4 0x8D977672 EQ PUSH2 0xB2 JUMPI DUP1 PUSH4 0xB6CB58A5 EQ PUSH2 0xE4 JUMPI DUP1 PUSH4 0xC3084117 EQ PUSH2 0x102 JUMPI DUP1 PUSH4 0xE1E29558 EQ PUSH2 0x11E JUMPI JUMPDEST PUSH0 DUP1 REVERT JUMPDEST PUSH2 0x7E PUSH1 0x4 DUP1 CALLDATASIZE SUB DUP2 ADD SWAP1 PUSH2 0x79 SWAP2 SWAP1 PUSH2 0x674 JUMP JUMPDEST PUSH2 0x13A JUMP JUMPDEST PUSH1 0x40 MLOAD PUSH2 0x8D SWAP4 SWAP3 SWAP2 SWAP1 PUSH2 0x752 JUMP JUMPDEST PUSH1 0x40 MLOAD DUP1 SWAP2 SUB SWAP1 RETURN JUMPDEST PUSH2 0xB0 PUSH1 0x4 DUP1 CALLDATASIZE SUB DUP2 ADD SWAP1 PUSH2 0xAB SWAP2 SWAP1 PUSH2 0x8BA JUMP JUMPDEST PUSH2 0x27B JUMP JUMPDEST STOP JUMPDEST PUSH2 0xCC PUSH1 0x4 DUP1 CALLDATASIZE SUB DUP2 ADD SWAP1 PUSH2 0xC7 SWAP2 SWAP1 PUSH2 0x674 JUMP JUMPDEST PUSH2 0x341 JUMP JUMPDEST PUSH1 0x40 MLOAD PUSH2 0xDB SWAP4 SWAP3 SWAP2 SWAP1 PUSH2 0x752 JUMP JUMPDEST PUSH1 0x40 MLOAD DUP1 SWAP2 SUB SWAP1 RETURN JUMPDEST PUSH2 0xEC PUSH2 0x3F8 JUMP JUMPDEST PUSH1 0x40 MLOAD PUSH2 0xF9 SWAP2 SWAP1 PUSH2 0x901 JUMP JUMPDEST PUSH1 0x40 MLOAD DUP1 SWAP2 SUB SWAP1 RETURN JUMPDEST PUSH2 0x11C PUSH1 0x4 DUP1 CALLDATASIZE SUB DUP2 ADD SWAP1 PUSH2 0x117 SWAP2 SWAP1 PUSH2 0x674 JUMP JUMPDEST PUSH2 0x3FE JUMP JUMPDEST STOP JUMPDEST PUSH2 0x138 PUSH1 0x4 DUP1 CALLDATASIZE SUB DUP2 ADD SWAP1 PUSH2 0x133 SWAP2 SWAP1 PUSH2 0x674 JUMP JUMPDEST PUSH2 0x4C3 JUMP JUMPDEST STOP JUMPDEST PUSH0 PUSH1 0x60 PUSH0 DUP1 DUP5 GT DUP1 ISZERO PUSH2 0x14F JUMPI POP PUSH1 0x1 SLOAD DUP5 GT ISZERO JUMPDEST PUSH2 0x18E JUMPI PUSH1 0x40 MLOAD PUSH32 0x8C379A000000000000000000000000000000000000000000000000000000000 DUP2 MSTORE PUSH1 0x4 ADD PUSH2 0x185 SWAP1 PUSH2 0x964 JUMP JUMPDEST PUSH1 0x40 MLOAD DUP1 SWAP2 SUB SWAP1 REVERT JUMPDEST PUSH0 DUP1 PUSH0 DUP7 DUP2 MSTORE PUSH1 0x20 ADD SWAP1 DUP2 MSTORE PUSH1 0x20 ADD PUSH0 KECCAK256 PUSH1 0x40 MLOAD DUP1 PUSH1 0x60 ADD PUSH1 0x40 MSTORE SWAP1 DUP2 PUSH0 DUP3 ADD SLOAD DUP2 MSTORE PUSH1 0x20 ADD PUSH1 0x1 DUP3 ADD DUP1 SLOAD PUSH2 0x1C3 SWAP1 PUSH2 0x9AF JUMP JUMPDEST DUP1 PUSH1 0x1F ADD PUSH1 0x20 DUP1 SWAP2 DIV MUL PUSH1 0x20 ADD PUSH1 0x40 MLOAD SWAP1 DUP2 ADD PUSH1 0x40 MSTORE DUP1 SWAP3 SWAP2 SWAP1 DUP2 DUP2 MSTORE PUSH1 0x20 ADD DUP3 DUP1 SLOAD PUSH2 0x1EF SWAP1 PUSH2 0x9AF JUMP JUMPDEST DUP1 ISZERO PUSH2 0x23A JUMPI DUP1 PUSH1 0x1F LT PUSH2 0x211 JUMPI PUSH2 0x100 DUP1 DUP4 SLOAD DIV MUL DUP4 MSTORE SWAP2 PUSH1 0x20 ADD SWAP2 PUSH2 0x23A JUMP JUMPDEST DUP3 ADD SWAP2 SWAP1 PUSH0 MSTORE PUSH1 0x20 PUSH0 KECCAK256 SWAP1 JUMPDEST DUP2 SLOAD DUP2 MSTORE SWAP1 PUSH1 0x1 ADD SWAP1 PUSH1 0x20 ADD DUP1 DUP4 GT PUSH2 0x21D JUMPI DUP3 SWAP1 SUB PUSH1 0x1F AND DUP3 ADD SWAP2 JUMPDEST POP POP POP POP POP DUP2 MSTORE PUSH1 0x20 ADD PUSH1 0x2 DUP3 ADD PUSH0 SWAP1 SLOAD SWAP1 PUSH2 0x100 EXP SWAP1 DIV PUSH1 0xFF AND ISZERO ISZERO ISZERO ISZERO DUP2 MSTORE POP POP SWAP1 POP DUP1 PUSH0 ADD MLOAD DUP2 PUSH1 0x20 ADD MLOAD DUP3 PUSH1 0x40 ADD MLOAD SWAP4 POP SWAP4 POP SWAP4 POP POP SWAP2 SWAP4 SWAP1 SWAP3 POP JUMP JUMPDEST PUSH1 0x1 PUSH0 DUP2 SLOAD DUP1 SWAP3 SWAP2 SWAP1 PUSH2 0x28D SWAP1 PUSH2 0xA0C JUMP JUMPDEST SWAP2 SWAP1 POP SSTORE POP PUSH1 0x40 MLOAD DUP1 PUSH1 0x60 ADD PUSH1 0x40 MSTORE DUP1 PUSH1 0x1 SLOAD DUP2 MSTORE PUSH1 0x20 ADD DUP3 DUP2 MSTORE PUSH1 0x20 ADD PUSH0 ISZERO ISZERO DUP2 MSTORE POP PUSH0 DUP1 PUSH1 0x1 SLOAD DUP2 MSTORE PUSH1 0x20 ADD SWAP1 DUP2 MSTORE PUSH1 0x20 ADD PUSH0 KECCAK256 PUSH0 DUP3 ADD MLOAD DUP2 PUSH0 ADD SSTORE PUSH1 0x20 DUP3 ADD MLOAD DUP2 PUSH1 0x1 ADD SWAP1 DUP2 PUSH2 0x2E0 SWAP2 SWAP1 PUSH2 0xBF0 JUMP JUMPDEST POP PUSH1 0x40 DUP3 ADD MLOAD DUP2 PUSH1 0x2 ADD PUSH0 PUSH2 0x100 EXP DUP2 SLOAD DUP2 PUSH1 0xFF MUL NOT AND SWAP1 DUP4 ISZERO ISZERO MUL OR SWAP1 SSTORE POP SWAP1 POP POP PUSH32 0xA5ED9E6226C584326505694539C95CB0E3238AE09BCDA5A65C00BBFDAB1C6662 PUSH1 0x1 SLOAD DUP3 PUSH1 0x40 MLOAD PUSH2 0x336 SWAP3 SWAP2 SWAP1 PUSH2 0xCBF JUMP JUMPDEST PUSH1 0x40 MLOAD DUP1 SWAP2 SUB SWAP1 LOG1 POP JUMP JUMPDEST PUSH0 PUSH1 0x20 MSTORE DUP1 PUSH0 MSTORE PUSH1 0x40 PUSH0 KECCAK256 PUSH0 SWAP2 POP SWAP1 POP DUP1 PUSH0 ADD SLOAD SWAP1 DUP1 PUSH1 0x1 ADD DUP1 SLOAD PUSH2 0x365 SWAP1 PUSH2 0x9AF JUMP JUMPDEST DUP1 PUSH1 0x1F ADD PUSH1 0x20 DUP1 SWAP2 DIV MUL PUSH1 0x20 ADD PUSH1 0x40 MLOAD SWAP1 DUP2 ADD PUSH1 0x40 MSTORE DUP1 SWAP3 SWAP2 SWAP1 DUP2 DUP2 MSTORE PUSH1 0x20 ADD DUP3 DUP1 SLOAD PUSH2 0x391 SWAP1 PUSH2 0x9AF JUMP JUMPDEST DUP1 ISZERO PUSH2 0x3DC JUMPI DUP1 PUSH1 0x1F LT PUSH2 0x3B3 JUMPI PUSH2 0x100 DUP1 DUP4 SLOAD DIV MUL DUP4 MSTORE SWAP2 PUSH1 0x20 ADD SWAP2 PUSH2 0x3DC JUMP JUMPDEST DUP3 ADD SWAP2 SWAP1 PUSH0 MSTORE PUSH1 0x20 PUSH0 KECCAK256 SWAP1 JUMPDEST DUP2 SLOAD DUP2 MSTORE SWAP1 PUSH1 0x1 ADD SWAP1 PUSH1 0x20 ADD DUP1 DUP4 GT PUSH2 0x3BF JUMPI DUP3 SWAP1 SUB PUSH1 0x1F AND DUP3 ADD SWAP2 JUMPDEST POP POP POP POP POP SWAP1 DUP1 PUSH1 0x2 ADD PUSH0 SWAP1 SLOAD SWAP1 PUSH2 0x100 EXP SWAP1 DIV PUSH1 0xFF AND SWAP1 POP DUP4 JUMP JUMPDEST PUSH1 0x1 SLOAD DUP2 JUMP JUMPDEST PUSH0 DUP2 GT DUP1 ISZERO PUSH2 0x40F JUMPI POP PUSH1 0x1 SLOAD DUP2 GT ISZERO JUMPDEST PUSH2 0x44E JUMPI PUSH1 0x40 MLOAD PUSH32 0x8C379A000000000000000000000000000000000000000000000000000000000 DUP2 MSTORE PUSH1 0x4 ADD PUSH2 0x445 SWAP1 PUSH2 0x964 JUMP JUMPDEST PUSH1 0x40 MLOAD DUP1 SWAP2 SUB SWAP1 REVERT JUMPDEST PUSH0 DUP1 DUP3 DUP2 MSTORE PUSH1 0x20 ADD SWAP1 DUP2 MSTORE PUSH1 0x20 ADD PUSH0 KECCAK256 PUSH0 DUP1 DUP3 ADD PUSH0 SWAP1 SSTORE PUSH1 0x1 DUP3 ADD PUSH0 PUSH2 0x474 SWAP2 SWAP1 PUSH2 0x5D8 JUMP JUMPDEST PUSH1 0x2 DUP3 ADD PUSH0 PUSH2 0x100 EXP DUP2 SLOAD SWAP1 PUSH1 0xFF MUL NOT AND SWAP1 SSTORE POP POP PUSH32 0x36A2F40CFE61ACE5BAF26A6E4F86FFA75C62392FDE263D354D42E0E718FA4BD1 DUP2 PUSH1 0x40 MLOAD PUSH2 0x4B8 SWAP2 SWAP1 PUSH2 0x901 JUMP JUMPDEST PUSH1 0x40 MLOAD DUP1 SWAP2 SUB SWAP1 LOG1 POP JUMP JUMPDEST PUSH0 DUP2 GT DUP1 ISZERO PUSH2 0x4D4 JUMPI POP PUSH1 0x1 SLOAD DUP2 GT ISZERO JUMPDEST PUSH2 0x513 JUMPI PUSH1 0x40 MLOAD PUSH32 0x8C379A000000000000000000000000000000000000000000000000000000000 DUP2 MSTORE PUSH1 0x4 ADD PUSH2 0x50A SWAP1 PUSH2 0x964 JUMP JUMPDEST PUSH1 0x40 MLOAD DUP1 SWAP2 SUB SWAP1 REVERT JUMPDEST PUSH0 DUP1 DUP3 DUP2 MSTORE PUSH1 0x20 ADD SWAP1 DUP2 MSTORE PUSH1 0x20 ADD PUSH0 KECCAK256 PUSH1 0x2 ADD PUSH0 SWAP1 SLOAD SWAP1 PUSH2 0x100 EXP SWAP1 DIV PUSH1 0xFF AND ISZERO PUSH2 0x573 JUMPI PUSH1 0x40 MLOAD PUSH32 0x8C379A000000000000000000000000000000000000000000000000000000000 DUP2 MSTORE PUSH1 0x4 ADD PUSH2 0x56A SWAP1 PUSH2 0xD37 JUMP JUMPDEST PUSH1 0x40 MLOAD DUP1 SWAP2 SUB SWAP1 REVERT JUMPDEST PUSH1 0x1 PUSH0 DUP1 DUP4 DUP2 MSTORE PUSH1 0x20 ADD SWAP1 DUP2 MSTORE PUSH1 0x20 ADD PUSH0 KECCAK256 PUSH1 0x2 ADD PUSH0 PUSH2 0x100 EXP DUP2 SLOAD DUP2 PUSH1 0xFF MUL NOT AND SWAP1 DUP4 ISZERO ISZERO MUL OR SWAP1 SSTORE POP PUSH32 0xC1FA7142CFB933D0855114A3BFFDE296944C30B727F297C14D0DB4D553D3A5C7 DUP2 PUSH1 0x40 MLOAD PUSH2 0x5CD SWAP2 SWAP1 PUSH2 0x901 JUMP JUMPDEST PUSH1 0x40 MLOAD DUP1 SWAP2 SUB SWAP1 LOG1 POP JUMP JUMPDEST POP DUP1 SLOAD PUSH2 0x5E4 SWAP1 PUSH2 0x9AF JUMP JUMPDEST PUSH0 DUP3 SSTORE DUP1 PUSH1 0x1F LT PUSH2 0x5F5 JUMPI POP PUSH2 0x612 JUMP JUMPDEST PUSH1 0x1F ADD PUSH1 0x20 SWAP1 DIV SWAP1 PUSH0 MSTORE PUSH1 0x20 PUSH0 KECCAK256 SWAP1 DUP2 ADD SWAP1 PUSH2 0x611 SWAP2 SWAP1 PUSH2 0x615 JUMP JUMPDEST JUMPDEST POP JUMP JUMPDEST JUMPDEST DUP1 DUP3 GT ISZERO PUSH2 0x62C JUMPI PUSH0 DUP2 PUSH0 SWAP1 SSTORE POP PUSH1 0x1 ADD PUSH2 0x616 JUMP JUMPDEST POP SWAP1 JUMP JUMPDEST PUSH0 PUSH1 0x40 MLOAD SWAP1 POP SWAP1 JUMP JUMPDEST PUSH0 DUP1 REVERT JUMPDEST PUSH0 DUP1 REVERT JUMPDEST PUSH0 DUP2 SWAP1 POP SWAP2 SWAP1 POP JUMP JUMPDEST PUSH2 0x653 DUP2 PUSH2 0x641 JUMP JUMPDEST DUP2 EQ PUSH2 0x65D JUMPI PUSH0 DUP1 REVERT JUMPDEST POP JUMP JUMPDEST PUSH0 DUP2 CALLDATALOAD SWAP1 POP PUSH2 0x66E DUP2 PUSH2 0x64A JUMP JUMPDEST SWAP3 SWAP2 POP POP JUMP JUMPDEST PUSH0 PUSH1 0x20 DUP3 DUP5 SUB SLT ISZERO PUSH2 0x689 JUMPI PUSH2 0x688 PUSH2 0x639 JUMP JUMPDEST JUMPDEST PUSH0 PUSH2 0x696 DUP5 DUP3 DUP6 ADD PUSH2 0x660 JUMP JUMPDEST SWAP2 POP POP SWAP3 SWAP2 POP POP JUMP JUMPDEST PUSH2 0x6A8 DUP2 PUSH2 0x641 JUMP JUMPDEST DUP3 MSTORE POP POP JUMP JUMPDEST PUSH0 DUP2 MLOAD SWAP1 POP SWAP2 SWAP1 POP JUMP JUMPDEST PUSH0 DUP3 DUP3 MSTORE PUSH1 0x20 DUP3 ADD SWAP1 POP SWAP3 SWAP2 POP POP JUMP JUMPDEST PUSH0 JUMPDEST DUP4 DUP2 LT ISZERO PUSH2 0x6E5 JUMPI DUP1 DUP3 ADD MLOAD DUP2 DUP5 ADD MSTORE PUSH1 0x20 DUP2 ADD SWAP1 POP PUSH2 0x6CA JUMP JUMPDEST PUSH0 DUP5 DUP5 ADD MSTORE POP POP POP POP JUMP JUMPDEST PUSH0 PUSH1 0x1F NOT PUSH1 0x1F DUP4 ADD AND SWAP1 POP SWAP2 SWAP1 POP JUMP JUMPDEST PUSH0 PUSH2 0x70A DUP3 PUSH2 0x6AE JUMP JUMPDEST PUSH2 0x714 DUP2 DUP6 PUSH2 0x6B8 JUMP JUMPDEST SWAP4 POP PUSH2 0x724 DUP2 DUP6 PUSH1 0x20 DUP7 ADD PUSH2 0x6C8 JUMP JUMPDEST PUSH2 0x72D DUP2 PUSH2 0x6F0 JUMP JUMPDEST DUP5 ADD SWAP2 POP POP SWAP3 SWAP2 POP POP JUMP JUMPDEST PUSH0 DUP2 ISZERO ISZERO SWAP1 POP SWAP2 SWAP1 POP JUMP JUMPDEST PUSH2 0x74C DUP2 PUSH2 0x738 JUMP JUMPDEST DUP3 MSTORE POP POP JUMP JUMPDEST PUSH0 PUSH1 0x60 DUP3 ADD SWAP1 POP PUSH2 0x765 PUSH0 DUP4 ADD DUP7 PUSH2 0x69F JUMP JUMPDEST DUP2 DUP2 SUB PUSH1 0x20 DUP4 ADD MSTORE PUSH2 0x777 DUP2 DUP6 PUSH2 0x700 JUMP JUMPDEST SWAP1 POP PUSH2 0x786 PUSH1 0x40 DUP4 ADD DUP5 PUSH2 0x743 JUMP JUMPDEST SWAP5 SWAP4 POP POP POP POP JUMP JUMPDEST PUSH0 DUP1 REVERT JUMPDEST PUSH0 DUP1 REVERT JUMPDEST PUSH32 0x4E487B7100000000000000000000000000000000000000000000000000000000 PUSH0 MSTORE PUSH1 0x41 PUSH1 0x4 MSTORE PUSH1 0x24 PUSH0 REVERT JUMPDEST PUSH2 0x7CC DUP3 PUSH2 0x6F0 JUMP JUMPDEST DUP2 ADD DUP2 DUP2 LT PUSH8 0xFFFFFFFFFFFFFFFF DUP3 GT OR ISZERO PUSH2 0x7EB JUMPI PUSH2 0x7EA PUSH2 0x796 JUMP JUMPDEST JUMPDEST DUP1 PUSH1 0x40 MSTORE POP POP POP JUMP JUMPDEST PUSH0 PUSH2 0x7FD PUSH2 0x630 JUMP JUMPDEST SWAP1 POP PUSH2 0x809 DUP3 DUP3 PUSH2 0x7C3 JUMP JUMPDEST SWAP2 SWAP1 POP JUMP JUMPDEST PUSH0 PUSH8 0xFFFFFFFFFFFFFFFF DUP3 GT ISZERO PUSH2 0x828 JUMPI PUSH2 0x827 PUSH2 0x796 JUMP JUMPDEST JUMPDEST PUSH2 0x831 DUP3 PUSH2 0x6F0 JUMP JUMPDEST SWAP1 POP PUSH1 0x20 DUP2 ADD SWAP1 POP SWAP2 SWAP1 POP JUMP JUMPDEST DUP3 DUP2 DUP4 CALLDATACOPY PUSH0 DUP4 DUP4 ADD MSTORE POP POP POP JUMP JUMPDEST PUSH0 PUSH2 0x85E PUSH2 0x859 DUP5 PUSH2 0x80E JUMP JUMPDEST PUSH2 0x7F4 JUMP JUMPDEST SWAP1 POP DUP3 DUP2 MSTORE PUSH1 0x20 DUP2 ADD DUP5 DUP5 DUP5 ADD GT ISZERO PUSH2 0x87A JUMPI PUSH2 0x879 PUSH2 0x792 JUMP JUMPDEST JUMPDEST PUSH2 0x885 DUP5 DUP3 DUP6 PUSH2 0x83E JUMP JUMPDEST POP SWAP4 SWAP3 POP POP POP JUMP JUMPDEST PUSH0 DUP3 PUSH1 0x1F DUP4 ADD SLT PUSH2 0x8A1 JUMPI PUSH2 0x8A0 PUSH2 0x78E JUMP JUMPDEST JUMPDEST DUP2 CALLDATALOAD PUSH2 0x8B1 DUP5 DUP3 PUSH1 0x20 DUP7 ADD PUSH2 0x84C JUMP JUMPDEST SWAP2 POP POP SWAP3 SWAP2 POP POP JUMP JUMPDEST PUSH0 PUSH1 0x20 DUP3 DUP5 SUB SLT ISZERO PUSH2 0x8CF JUMPI PUSH2 0x8CE PUSH2 0x639 JUMP JUMPDEST JUMPDEST PUSH0 DUP3 ADD CALLDATALOAD PUSH8 0xFFFFFFFFFFFFFFFF DUP2 GT ISZERO PUSH2 0x8EC JUMPI PUSH2 0x8EB PUSH2 0x63D JUMP JUMPDEST JUMPDEST PUSH2 0x8F8 DUP5 DUP3 DUP6 ADD PUSH2 0x88D JUMP JUMPDEST SWAP2 POP POP SWAP3 SWAP2 POP POP JUMP JUMPDEST PUSH0 PUSH1 0x20 DUP3 ADD SWAP1 POP PUSH2 0x914 PUSH0 DUP4 ADD DUP5 PUSH2 0x69F JUMP JUMPDEST SWAP3 SWAP2 POP POP JUMP JUMPDEST PUSH32 0x496E76616C6964207461736B2049440000000000000000000000000000000000 PUSH0 DUP3 ADD MSTORE POP JUMP JUMPDEST PUSH0 PUSH2 0x94E PUSH1 0xF DUP4 PUSH2 0x6B8 JUMP JUMPDEST SWAP2 POP PUSH2 0x959 DUP3 PUSH2 0x91A JUMP JUMPDEST PUSH1 0x20 DUP3 ADD SWAP1 POP SWAP2 SWAP1 POP JUMP JUMPDEST PUSH0 PUSH1 0x20 DUP3 ADD SWAP1 POP DUP2 DUP2 SUB PUSH0 DUP4 ADD MSTORE PUSH2 0x97B DUP2 PUSH2 0x942 JUMP JUMPDEST SWAP1 POP SWAP2 SWAP1 POP JUMP JUMPDEST PUSH32 0x4E487B7100000000000000000000000000000000000000000000000000000000 PUSH0 MSTORE PUSH1 0x22 PUSH1 0x4 MSTORE PUSH1 0x24 PUSH0 REVERT JUMPDEST PUSH0 PUSH1 0x2 DUP3 DIV SWAP1 POP PUSH1 0x1 DUP3 AND DUP1 PUSH2 0x9C6 JUMPI PUSH1 0x7F DUP3 AND SWAP2 POP JUMPDEST PUSH1 0x20 DUP3 LT DUP2 SUB PUSH2 0x9D9 JUMPI PUSH2 0x9D8 PUSH2 0x982 JUMP JUMPDEST JUMPDEST POP SWAP2 SWAP1 POP JUMP JUMPDEST PUSH32 0x4E487B7100000000000000000000000000000000000000000000000000000000 PUSH0 MSTORE PUSH1 0x11 PUSH1 0x4 MSTORE PUSH1 0x24 PUSH0 REVERT JUMPDEST PUSH0 PUSH2 0xA16 DUP3 PUSH2 0x641 JUMP JUMPDEST SWAP2 POP PUSH32 0xFFFFFFFFFFFFFFFFFFFFFFFFFFFFFFFFFFFFFFFFFFFFFFFFFFFFFFFFFFFFFFFF DUP3 SUB PUSH2 0xA48 JUMPI PUSH2 0xA47 PUSH2 0x9DF JUMP JUMPDEST JUMPDEST PUSH1 0x1 DUP3 ADD SWAP1 POP SWAP2 SWAP1 POP JUMP JUMPDEST PUSH0 DUP2 SWAP1 POP DUP2 PUSH0 MSTORE PUSH1 0x20 PUSH0 KECCAK256 SWAP1 POP SWAP2 SWAP1 POP JUMP JUMPDEST PUSH0 PUSH1 0x20 PUSH1 0x1F DUP4 ADD DIV SWAP1 POP SWAP2 SWAP1 POP JUMP JUMPDEST PUSH0 DUP3 DUP3 SHL SWAP1 POP SWAP3 SWAP2 POP POP JUMP JUMPDEST PUSH0 PUSH1 0x8 DUP4 MUL PUSH2 0xAAF PUSH32 0xFFFFFFFFFFFFFFFFFFFFFFFFFFFFFFFFFFFFFFFFFFFFFFFFFFFFFFFFFFFFFFFF DUP3 PUSH2 0xA74 JUMP JUMPDEST PUSH2 0xAB9 DUP7 DUP4 PUSH2 0xA74 JUMP JUMPDEST SWAP6 POP DUP1 NOT DUP5 AND SWAP4 POP DUP1 DUP7 AND DUP5 OR SWAP3 POP POP POP SWAP4 SWAP3 POP POP POP JUMP JUMPDEST PUSH0 DUP2 SWAP1 POP SWAP2 SWAP1 POP JUMP JUMPDEST PUSH0 PUSH2 0xAF4 PUSH2 0xAEF PUSH2 0xAEA DUP5 PUSH2 0x641 JUMP JUMPDEST PUSH2 0xAD1 JUMP JUMPDEST PUSH2 0x641 JUMP JUMPDEST SWAP1 POP SWAP2 SWAP1 POP JUMP JUMPDEST PUSH0 DUP2 SWAP1 POP SWAP2 SWAP1 POP JUMP JUMPDEST PUSH2 0xB0D DUP4 PUSH2 0xADA JUMP JUMPDEST PUSH2 0xB21 PUSH2 0xB19 DUP3 PUSH2 0xAFB JUMP JUMPDEST DUP5 DUP5 SLOAD PUSH2 0xA80 JUMP JUMPDEST DUP3 SSTORE POP POP POP POP JUMP JUMPDEST PUSH0 SWAP1 JUMP JUMPDEST PUSH2 0xB35 PUSH2 0xB29 JUMP JUMPDEST PUSH2 0xB40 DUP2 DUP5 DUP5 PUSH2 0xB04 JUMP JUMPDEST POP POP POP JUMP JUMPDEST JUMPDEST DUP2 DUP2 LT ISZERO PUSH2 0xB63 JUMPI PUSH2 0xB58 PUSH0 DUP3 PUSH2 0xB2D JUMP JUMPDEST PUSH1 0x1 DUP2 ADD SWAP1 POP PUSH2 0xB46 JUMP JUMPDEST POP POP JUMP JUMPDEST PUSH1 0x1F DUP3 GT ISZERO PUSH2 0xBA8 JUMPI PUSH2 0xB79 DUP2 PUSH2 0xA53 JUMP JUMPDEST PUSH2 0xB82 DUP5 PUSH2 0xA65 JUMP JUMPDEST DUP2 ADD PUSH1 0x20 DUP6 LT ISZERO PUSH2 0xB91 JUMPI DUP2 SWAP1 POP JUMPDEST PUSH2 0xBA5 PUSH2 0xB9D DUP6 PUSH2 0xA65 JUMP JUMPDEST DUP4 ADD DUP3 PUSH2 0xB45 JUMP JUMPDEST POP POP JUMPDEST POP POP POP JUMP JUMPDEST PUSH0 DUP3 DUP3 SHR SWAP1 POP SWAP3 SWAP2 POP POP JUMP JUMPDEST PUSH0 PUSH2 0xBC8 PUSH0 NOT DUP5 PUSH1 0x8 MUL PUSH2 0xBAD JUMP JUMPDEST NOT DUP1 DUP4 AND SWAP2 POP POP SWAP3 SWAP2 POP POP JUMP JUMPDEST PUSH0 PUSH2 0xBE0 DUP4 DUP4 PUSH2 0xBB9 JUMP JUMPDEST SWAP2 POP DUP3 PUSH1 0x2 MUL DUP3 OR SWAP1 POP SWAP3 SWAP2 POP POP JUMP JUMPDEST PUSH2 0xBF9 DUP3 PUSH2 0x6AE JUMP JUMPDEST PUSH8 0xFFFFFFFFFFFFFFFF DUP2 GT ISZERO PUSH2 0xC12 JUMPI PUSH2 0xC11 PUSH2 0x796 JUMP JUMPDEST JUMPDEST PUSH2 0xC1C DUP3 SLOAD PUSH2 0x9AF JUMP JUMPDEST PUSH2 0xC27 DUP3 DUP3 DUP6 PUSH2 0xB67 JUMP JUMPDEST PUSH0 PUSH1 0x20 SWAP1 POP PUSH1 0x1F DUP4 GT PUSH1 0x1 DUP2 EQ PUSH2 0xC58 JUMPI PUSH0 DUP5 ISZERO PUSH2 0xC46 JUMPI DUP3 DUP8 ADD MLOAD SWAP1 POP JUMPDEST PUSH2 0xC50 DUP6 DUP3 PUSH2 0xBD5 JUMP JUMPDEST DUP7 SSTORE POP PUSH2 0xCB7 JUMP JUMPDEST PUSH1 0x1F NOT DUP5 AND PUSH2 0xC66 DUP7 PUSH2 0xA53 JUMP JUMPDEST PUSH0 JUMPDEST DUP3 DUP2 LT ISZERO PUSH2 0xC8D JUMPI DUP5 DUP10 ADD MLOAD DUP3 SSTORE PUSH1 0x1 DUP3 ADD SWAP2 POP PUSH1 0x20 DUP6 ADD SWAP5 POP PUSH1 0x20 DUP2 ADD SWAP1 POP PUSH2 0xC68 JUMP JUMPDEST DUP7 DUP4 LT ISZERO PUSH2 0xCAA JUMPI DUP5 DUP10 ADD MLOAD PUSH2 0xCA6 PUSH1 0x1F DUP10 AND DUP3 PUSH2 0xBB9 JUMP JUMPDEST DUP4 SSTORE POP JUMPDEST PUSH1 0x1 PUSH1 0x2 DUP9 MUL ADD DUP9 SSTORE POP POP POP JUMPDEST POP POP POP POP POP POP JUMP JUMPDEST PUSH0 PUSH1 0x40 DUP3 ADD SWAP1 POP PUSH2 0xCD2 PUSH0 DUP4 ADD DUP6 PUSH2 0x69F JUMP JUMPDEST DUP2 DUP2 SUB PUSH1 0x20 DUP4 ADD MSTORE PUSH2 0xCE4 DUP2 DUP5 PUSH2 0x700 JUMP JUMPDEST SWAP1 POP SWAP4 SWAP3 POP POP POP JUMP JUMPDEST PUSH32 0x5461736B20436F6D706C657465642057656C646F6E6500000000000000000000 PUSH0 DUP3 ADD MSTORE POP JUMP JUMPDEST PUSH0 PUSH2 0xD21 PUSH1 0x16 DUP4 PUSH2 0x6B8 JUMP JUMPDEST SWAP2 POP PUSH2 0xD2C DUP3 PUSH2 0xCED JUMP JUMPDEST PUSH1 0x20 DUP3 ADD SWAP1 POP SWAP2 SWAP1 POP JUMP JUMPDEST PUSH0 PUSH1 0x20 DUP3 ADD SWAP1 POP DUP2 DUP2 SUB PUSH0 DUP4 ADD MSTORE PUSH2 0xD4E DUP2 PUSH2 0xD15 JUMP JUMPDEST SWAP1 POP SWAP2 SWAP1 POP JUMP INVALID LOG2 PUSH5 0x6970667358 0x22 SLT KECCAK256 SWAP11 0xBB PUSH0 JUMPI 0xC4 0xA5 0xBE LOG3 0x4E BALANCE 0xCD CALLDATALOAD 0x22 0xF9 0xBC MUL 0xE1 DUP8 KECCAK256 PUSH8 0x5A362A4D024C1E28 SWAP5 DUP1 0xD0 SLOAD PUSH5 0x736F6C6343 STOP ADDMOD AND STOP CALLER "
		},
		"gasEstimates": {
			"creation": {
				"codeDepositCost": "693400",
				"executionCost": "726",
				"totalCost": "694126"
			},
			"external": {
				"addTask(string)": "infinite",
				"completeTask(uint256)": "infinite",
				"getTask(uint256)": "infinite",
				"removeTask(uint256)": "infinite",
				"taskCount()": "2469",
				"tasks(uint256)": "infinite"
			}
		},
		"methodIdentifiers": {
			"addTask(string)": "67238562",
			"completeTask(uint256)": "e1e29558",
			"getTask(uint256)": "1d65e77e",
			"removeTask(uint256)": "c3084117",
			"taskCount()": "b6cb58a5",
			"tasks(uint256)": "8d977672"
		}
	},
	"abi": [
		{
			"anonymous": false,
			"inputs": [
				{
					"indexed": false,
					"internalType": "uint256",
					"name": "id",
					"type": "uint256"
				}
			],
			"name": "TaskCompleted",
			"type": "event"
		},
		{
			"anonymous": false,
			"inputs": [
				{
					"indexed": false,
					"internalType": "uint256",
					"name": "id",
					"type": "uint256"
				},
				{
					"indexed": false,
					"internalType": "string",
					"name": "description",
					"type": "string"
				}
			],
			"name": "TaskCreated",
			"type": "event"
		},
		{
			"anonymous": false,
			"inputs": [
				{
					"indexed": false,
					"internalType": "uint256",
					"name": "id",
					"type": "uint256"
				}
			],
			"name": "TaskRemoved",
			"type": "event"
		},
		{
			"inputs": [
				{
					"internalType": "string",
					"name": "_description",
					"type": "string"
				}
			],
			"name": "addTask",
			"outputs": [],
			"stateMutability": "nonpayable",
			"type": "function"
		},
		{
			"inputs": [
				{
					"internalType": "uint256",
					"name": "_taskId",
					"type": "uint256"
				}
			],
			"name": "completeTask",
			"outputs": [],
			"stateMutability": "nonpayable",
			"type": "function"
		},
		{
			"inputs": [
				{
					"internalType": "uint256",
					"name": "_taskId",
					"type": "uint256"
				}
			],
			"name": "getTask",
			"outputs": [
				{
					"internalType": "uint256",
					"name": "",
					"type": "uint256"
				},
				{
					"internalType": "string",
					"name": "",
					"type": "string"
				},
				{
					"internalType": "bool",
					"name": "",
					"type": "bool"
				}
			],
			"stateMutability": "view",
			"type": "function"
		},
		{
			"inputs": [
				{
					"internalType": "uint256",
					"name": "_taskId",
					"type": "uint256"
				}
			],
			"name": "removeTask",
			"outputs": [],
			"stateMutability": "nonpayable",
			"type": "function"
		},
		{
			"inputs": [],
			"name": "taskCount",
			"outputs": [
				{
					"internalType": "uint256",
					"name": "",
					"type": "uint256"
				}
			],
			"stateMutability": "view",
			"type": "function"
		},
		{
			"inputs": [
				{
					"internalType": "uint256",
					"name": "",
					"type": "uint256"
				}
			],
			"name": "tasks",
			"outputs": [
				{
					"internalType": "uint256",
					"name": "id",
					"type": "uint256"
				},
				{
					"internalType": "string",
					"name": "description",
					"type": "string"
				},
				{
					"internalType": "bool",
					"name": "isDone",
					"type": "bool"
				}
			],
			"stateMutability": "view",
			"type": "function"
		}
	]
}